:020000040800F2
:100000000050002021020008290200082D020008EB
:10001000A1020008A5020008ED020008000000008F
:100020000000000000000000000000003503000890
:1000300039030008000000003D03000841030008E8
:100040005103000851030008510300085103000840
:100050005103000851030008510300085103000830
:100060005103000851030008510300085103000820
:100070005103000851030008510300085103000810
:100080005103000851030008510300085103000800
:1000900051030008510300085103000851030008F0
:1000A00051030008510300085103000851030008E0
:1000B00051030008510300085103000851030008D0
:1000C00051030008510300085103000851030008C0
:1000D0005103000895070008510300085103000868
:1000E00051030008510300085103000800000000FC
:1000F0000000000000000000000000000000000000
:1001000000000000000000005FF808F100B583B0B7
:1001100000F0AEF9304B314A1360314A1360314B75
:10012000314A03E011681960043304322F498B42CD
:10013000F8D32A4B1A682E4B9A4204D1284B1A68DE
:100140002C4B9A4200D0FEE7234B2B4A13602B4ADC
:1001500013602B4B02E000221A600433294A9342B9
:10016000F9D3254B1B6813B9244B1B6803B1FEE779
:1001700000F08AF9694601A800F024F9224C234BCB
:100180001C1BA410002504E01F4B53F82530984792
:100190000135AC42F8DC1E4C1E4B1C1BA410002584
:1001A00004E01B4B53F8253098470135AC42F8DC8E
:1001B0000099019800F0A0FE0546174C174B1C1B38
:1001C000A41004E0013C144B53F824309847002C51
:1001D000F8DC284600F0D2F8BABADECA00000020E7
:1001E000D400002000000020041F0008D8000020D8
:1001F0007856341232547698D8000020C805002072
:10020000D8000020CC0500207C0300087C030008F7
:100210007C0300087C0300087C0300087C030008C2
:1002200008B5FFF773FF00BF00BEFEE71EF0040F26
:100230000CBFEFF30880EFF309807146414A104785
:100240002DE9F04182B004468846134B5E6B9F6BEC
:100250009D6A1B6B13F0020F0DD00F4BDB6A002B56
:1002600009DA4BF6AB6100F08BF920B14FF0004298
:10027000094BDA620CE0094800F0ACF8CDF80080D8
:100280003B4632462946204600F002F900BEFEE712
:1002900002B0BDE8F08100BF00ED00E0841E000860
:1002A00000BEFEE71EF0040F0CBFEFF30880EFF373
:1002B00009807146244A10472DE9F04182B0044676
:1002C0008846084B5E6B9F6B9D6A074800F082F87A
:1002D000CDF800803B4632462946204600F0D8F84B
:1002E00000BEFEE700ED00E0941E00081EF0040FC3
:1002F0000CBFEFF30880EFF309807146134A1047F3
:100300002DE9F04182B004468846084B5E6B9F6B36
:100310009D6A074800F05EF8CDF800803B46324603
:100320002946204600F0B4F800BEFEE700ED00E0EC
:10033000A01E000800BEFEE700BEFEE700BEFEE70E
:100340007047000041020008B902000801030008DC
:0403500000BEFEE706
:10035400041F000800000020D8000020041F00082B
:100364000000000000000000D8000020CC050020A0
:08037400000000000000000081
:10037C00FEE700BF08B50D4B1B6813B90C4A0B4BBD
:10038C001A600A4B1A68C31C23F00303134409496F
:10039C008B4206D901F098F80C2303604FF0FF3024
:1003AC0008BD02490B60104608BD00BFDC000020F0
:1003BC00CC050020004C002001230360014B0B6096
:1003CC00704700BF040000200FB400B583B004AB2D
:1003DC0053F8042B01938021064801F0A7F800285C
:1003EC0003DD0146034800F039F803B05DF804EB77
:1003FC0004B07047E40000202DE9F04385B00446BA
:10040C000F46435613BB042528462146ABBE044673
:10041C001FE03546102E28BF1025002306E014F9E6
:10042C00011B04AA1A4402F8101C0133AB42F6D388
:10043C0004AA1344002203F8102CE9464FF00408D8
:10044C0040464946ABBE8046761B00E00E46002E69
:10045C00DFD1384605B0BDE8F08300BF08B5FFF723
:10046C00CBFF08BD08B500F0FBF8024B024A9A60BE
:10047C0008BD00BF00ED00E00000000808B500F06A
:10048C0017F908BDF8B504460D4617461E46264812
:10049C00FFF79AFF21682548FFF796FF616824480B
:1004AC00FFF792FFA1682348FFF78EFFE16822480F
:1004BC00FFF78AFF21692148FFF786FF6169204811
:1004CC00FFF782FFA1691F48FFF77EFFE1691E4815
:1004DC00FFF77AFF1D48FFF777FF29461C48FFF707
:1004EC0073FF1C4CE16A1C48FFF76EFF216B1B4825
:1004FC00FFF76AFFE16B1A48FFF766FF15F0800FF4
:10050C0003D039461748FFF75FFF15F4004F03D0AF
:10051C0031461548FFF758FF1448FFF755FF069969
:10052C001348FFF751FFF8BD681D0008781D00083F
:10053C00881D0008981D0008A81D0008B81D00089B
:10054C00C81D0008D81D0008E81D0008F81D00088B
:10055C00041E000800ED00E0141E0008241E000814
:10056C00341E0008441E0008541E0008641E0008B7
:10057C006C1E000883691A888A4207D10268033A04
:10058C00012A05D80233836101207047002070478F
:10059C000020704782B00023019300932C4A13680B
:1005AC0043F4803313602A4B1B6803F4003300932D
:1005BC00019B01330193009B1BB9019BB3F5A06F09
:1005CC00F1D1234B1B6813F4003F02D0012300939D
:1005DC0001E000230093009B012B36D11D4B1A68C0
:1005EC0042F010021A601A6822F003021A601A68AC
:1005FC0042F002021A60A3F580535A685A605A6896
:10060C005A605A6842F480625A605A6822F47C122A
:10061C005A605A6842F4E8125A601A6842F08072C2
:10062C001A600B4B1B6813F0007FFAD0084B5A680A
:10063C0022F003025A605A6842F002025A60044BDC
:10064C005B6803F00C03082BF9D102B0704700BFB4
:10065C00001002400020024008B5FFF79BFF08BDC8
:10066C0008B5104B1A6842F001021A6059680E4A1C
:10067C000A405A601A6822F0847222F480321A609E
:10068C001A6822F480221A605A6822F4FE025A6018
:10069C004FF41F029A60FFF7DFFF4FF00062034B2D
:1006AC009A6008BD001002400000FFF800ED00E069
:1006BC001F4B5B6803F00C03042B06D0082B08D0EF
:1006CC003BBB1C4A1C4B1A6026E01A4A1A4B1A6098
:1006DC0022E0174A53685268C3F38343023312F47F
:1006EC00803F05D1154A02FB03F3134A136013E054
:1006FC000F4A526812F4003F05D0104A02FB03F374
:10070C000D4A136008E00B4A02FB03F30A4A13601C
:10071C0002E0084A084B1A60054B5B68C3F30313ED
:10072C00074AD35CDAB204490B68D3400B607047BC
:10073C000010024000127A001C00002000093D004D
:10074C000C00002010B441230B704A70002304E00D
:10075C00C45CCA18947001339BB2042BF8D94D2396
:10076C00CB7110BC704700BF0378412B0AD1437882
:10077C001370002304E0C2189278CA540133DBB220
:10078C00042BF8D9704700BF08B5224B1B68FBB18E
:10079C00204A136823F0400313601F4B9A685B6870
:1007AC009A4209D01C4B19685A68895C194A5160E5
:1007BC005A6801325A600BE0174B00221A609A609B
:1007CC005A601A73154B1B6813B1144B1B6898476E
:1007DC00104B1B68EBB1124B1B7BDBB2012B18D1FE
:1007EC000F4B19685A680B48406888545A68013294
:1007FC005A605A689B689A420BD1094B00221A60C6
:10080C009A605A601A73074B1B6813B1054B1B682F
:10081C00984708BD003801407C0100206801002089
:10082C006C01002064010020144AD36843F040039B
:10083C00D360D8B10246D9B1114B1B7B13F0FF0F1B
:10084C0018D110B40D4CE36843F00803E3600C4B73
:10085C00012018731A6000205860996019685A6852
:10086C008A5C62605A6801325A6005E00120704768
:10087C00012070470220704710BC704700380140BF
:10088C007C0100200F4AD36843F02003D360034659
:10089C0090B199B10C4A127B12F0FF0F10D109489C
:1008AC00C26842F00402C260074A136091600020E3
:1008BC00506001231373704701207047012070476B
:1008CC0002207047003801406C0100200C4BDA68A4
:1008DC0042F40052DA60DA6822F4805142680A432A
:1008EC00DA601A6922F44051C2680A431A618268BC
:1008FC009A60DA6822F4C06102690A43DA607047D0
:10090C000038014008B1014A1060704764010020B2
:10091C00074A136803F0FC0303431360136803F0E6
:10092C000303834201D1012070470020704700BFB0
:10093C0004100240012811D010B102281CD028E06C
:10094C0022B9154A13681943116022E0012A20D1FB
:10095C00114A136823EA010111601AE022B90F4A07
:10096C0013681943116014E0012A12D10B4A136861
:10097C0023EA010111600CE022B9094A13681943FA
:10098C00116006E0012A04D1054A136823EA01012B
:10099C0011600120704700BF141002401C1002406F
:1009AC0018100240430900F01F009B0003F1604344
:1009BC0003F56143012202FA00F01860704700BF92
:1009CC00420900F01F00012303FA00F0014B43F829
:1009DC002200704780E200E04FF0010080F31088A5
:1009EC00704700BF4FF0000080F31088704700BFC5
:1009FC00F0B404684268FF2A15D8216800230EE081
:100A0C0022FA03F515F0010F07D09F000F26BE4008
:100A1C0021EA06018568BD4029430133DBB2072B6F
:100A2C00EED921602BE0216800230EE022FA03F5B9
:100A3C0015F0010F07D09F000F26BE4021EA0601DA
:100A4C008568BD4029430133DBB2072BEED9216009
:100A5C006168002310E0426803F10805EA4012F0D7
:100A6C00010F07D09E000F25B54021EA05018268D1
:100A7C00B24011430133DBB2072BECD9616001208A
:100A8C00F0BC7047012A01D1016101E002B941615A
:100A9C000120704770B483B000238DF80730012318
:100AAC008DF807301B4BDB6813F0010FFAD1194C92
:100ABC00236943F00103236100241EE0650031F833
:100ACC00143020F81430134BDB6813F0010FFAD1FB
:100ADC00104E336943F020033361465B4B5B9E42FF
:100AEC0008D19DF8073003F001038DF8073001346D
:100AFC00A4B202E09DF8073002E0B4EB520FDDD354
:100B0C00044A136923F0010313619DF8070003B035
:100B1C0070BC704700200240074B1B6913F0800F1C
:100B2C0007D0054B054A5A6002F188325A60012001
:100B3C0070470020704700BF00200240230167452A
:100B4C0084B0019000238DF80F30019BB3F1006F3E
:100B5C0003D2019A174B9A4202D801238DF80F3019
:100B6C00154BDB6813F0010FFAD1134B1A6942F0E5
:100B7C0002021A61019A5A611A6942F040021A6122
:100B8C000D4BDB6813F0010FFAD1019B1B68B3F11D
:100B9C00FF3F05D19DF80F3003F001038DF80F30A6
:100BAC00054A136923F0020313619DF80F0004B08A
:100BBC00704700BF004000080020024008B500F05C
:100BCC00BBFA094900F006FA00F05EFC00F0B4FA3A
:100BDC00064900F0BDFB00F057FC002301E000BF0C
:100BEC0001338342FBD308BDC616823D6B7D913A1F
:100BFC0070B586B005460368012B0FD013B1022BDC
:100C0C0018D022E0002204210220FFF793FE0022DC
:100C1C004FF480410220FFF78DFE16E000220421E4
:100C2C000220FFF787FE00224FF400310120FFF76E
:100C3C0081FE0AE0002208210220FFF77BFE002241
:100C4C004FF480210120FFF775FE2B685C00E11842
:100C5C008A0012490A4403AE07CA86E80700E21864
:100C6C0093000F4A134493E807008DE807003046C1
:100C7C00FFF7BEFE6846FFF7BBFE01220199009804
:100C8C00FFF700FF2520FFF79BFE2520FFF78AFECC
:100C9C002846FFF71BFE002006B070BD2000002088
:100CAC004400002008B5FFF7BFFD08BD08B5FFF7ED
:100CBC00E9FD08BD08B5FFF725FE08BD81F30888DE
:100CCC00004700BF70B5764B1B78DBB2412B0CD1C3
:100CDC00744B1B784BB907217348FFF7E7FF0123CF
:100CEC00704A1370714A137070BD6E4B1B78012BD8
:100CFC0040F0D18000226B4B1A70694B5B78DBB2F1
:100D0C00452B05D0462B76D0442B40F0C88051E0C3
:100D1C00674C684A21466248FFF726FD2278A37883
:100D2C001344DBB2644A13702279934230D110E041
:100D3C005F4B588800F1006000EB8520FFF700FF47
:100D4C00012803D10135EDB2002405E00134E4B2F1
:100D5C0002E0012000242546ABB2554A128893428A
:100D6C0001D2022CE4D9012803D10022534B1A7072
:100D7C0002E00422514B1A70514C4E4AD2B2214619
:100D8C004E48FFF7DFFC08212046FFF78BFF0CE0F5
:100D9C004A48032303704A4C464AD2B22146FFF715
:100DAC00D1FC08212046FFF77DFF01213C48FFF7CD
:100DBC007DFF70BD3F4A43493948FFF7D5FC0022FF
:100DCC00414B1A700EE0414802683E49C95C404CE8
:100DDC00A154404C25682944216001320260013342
:100DEC00394A1370384B1B78042BECD901212C4851
:100DFC00FFF75CFF70BD384C2E4A21462848FFF7A0
:100E0C00B3FC2268334B1B689A4231D100252B4B23
:100E1C001D70304B1D60FFF7DFFD254E738803F10D
:100E2C0000632E4C20784FF48062294903EB80201C
:100E3C00FFF730FE254B1D6023780133DBB22370A6
:100E4C009BB23288934210D10522254B1A70224650
:100E5C001570244A15701C4A1570234A15701D4ACA
:100E6C001560154A1570114A1570FFF7BBFD02E0AD
:100E7C000322124B1A70124C0E4AD2B221460F4862
:100E8C00FFF760FC08212046FFF70CFF0121044806
:100E9C00FFF70CFF70BD01210148FFF707FF70BD84
:100EAC00A001002092010020A10100209E01002041
:100EBC00D8010020BC01002090010020C8010020B6
:100ECC0094010020C00100209D010020AC010020F5
:100EDC00E00100208C010020D001002093010020B3
:100EEC006C000020A80100209101002000B587B003
:100EFC000220FFF70DFD00224FF480410220FFF786
:100F0C0019FD002204210220FFF714FD00221021FC
:100F1C000220FFF70FFD2448FFF76AFE2348FFF776
:100F2C00C9FEFFF7F9FD224A03AB07CA83E80700A5
:100F3C001846FFF75DFD002204990398FFF7A2FD08
:100F4C004FF47A70FFF73AFE012204990398FFF7E9
:100F5C0099FD184B1B78052B14D10122164B1A70D6
:100F6C000022164B1A704FF4C002154B9A60154BA9
:100F7C001B681A6801925B68029302980199FFF74B
:100F8C009DFEE6E70C4B1B78012BE2D10B4B1B783B
:100F9C00002BDED10121094B19700022064B1A706F
:100FAC000948FFF783FED4E7B01E0008D10C0008F7
:100FBC00C41E00086C0000206D0000209C01002065
:100FCC0000ED00E068000020A001002080F000404F
:100FDC0002E000BF81F0004142001FBF5FEA410305
:100FEC0092EA030F7FEA226C7FEA236C6AD04FEA05
:100FFC001262D2EB1363C1BFD2184140484041404A
:10100C00B8BF5B42192B88BF704710F0004F40F4FB
:10101C00000020F07F4018BF404211F0004F41F417
:10102C00000121F07F4118BF494292EA030F3FD0E3
:10103C00A2F1010241FA03FC10EB0C00C3F12003F6
:10104C0001FA03F100F0004302D5494260EB400085
:10105C00B0F5000F13D3B0F1807F06D340084FEAF0
:10106C00310102F10102FE2A51D2B1F1004F40EBE5
:10107C00C25008BF20F0010040EA0300704749004D
:10108C0040EB000010F4000FA2F10102EDD1B0FA18
:10109C0080FCACF1080CB2EB0C0200FA0CF0AABF0D
:1010AC0000EBC25052421843BCBFD04018437047AB
:1010BC0092F0000F81F4000106BF80F400000132B1
:1010CC00013BB5E74FEA41037FEA226C18BF7FEA88
:1010DC00236C21D092EA030F04D092F0000F08BFCA
:1010EC000846704790EA010F1CBF0020704712F0B1
:1010FC007F4F04D1400028BF40F00040704712F1F0
:10110C0000723CBF00F50000704700F0004343F054
:10111C00FE4040F4000070477FEA226216BF08468A
:10112C007FEA23630146420206BF5FEA412390EA4D
:10113C00010F40F4800070474FF0000304E000BF43
:10114C0010F0004348BF40425FEA000C08BF7047F4
:10115C0043F0964301464FF000001CE050EA0102B8
:10116C0008BF70474FF000030AE000BF50EA0102CD
:10117C0008BF704711F0004302D5404261EB4101BA
:10118C005FEA010C02BF84460146002043F0B643DF
:10119C0008BFA3F18053A3F50003BCFA8CF2083A04
:1011AC00A3EBC25310DB01FA02FC634400FA02FC0D
:1011BC00C2F12002BCF1004F20FA02F243EB020014
:1011CC0008BF20F00100704702F1200201FA02FC76
:1011DC00C2F1200250EA4C0021FA02F243EB020069
:1011EC0008BF20EADC7070474FF0FF0C1CEAD052AD
:1011FC001EBF1CEAD15392EA0C0F93EA0C0F6FD06E
:10120C001A4480EA010C400218BF5FEA41211ED04B
:10121C004FF0006343EA501043EA5111A0FB013137
:10122C000CF00040B1F5000F3EBF490041EAD3710C
:10123C005B0040EA010062F17F02FD2A1DD8B3F188
:10124C00004F40EBC25008BF20F00100704790F0F7
:10125C00000F0CF0004C08BF49024CEA502040EA49
:10126C0051207F3AC2BFD2F1FF0340EAC25070470F
:10127C0040F400004FF00003013A5DDC12F1190F4D
:10128C00DCBF00F000407047C2F10002410021FABF
:10129C0002F1C2F1200200FA02FC5FEA310040F1D7
:1012AC00000053EA4C0308BF20EADC70704792F050
:1012BC00000F00F0004C02BF400010F4000F013A88
:1012CC00F9D040EA0C0093F0000F01F0004C02BF83
:1012DC00490011F4000F013BF9D041EA0C018FE7F2
:1012EC000CEAD15392EA0C0F18BF93EA0C0F0AD0F8
:1012FC0030F0004C18BF31F0004CD8D180EA01001E
:10130C0000F00040704790F0000F17BF90F0004FB6
:10131C00084691F0000F91F0004F14D092EA0C0F98
:10132C0001D142020FD193EA0C0F03D14B0218BF2B
:10133C00084608D180EA010000F0004040F0FE4071
:10134C0040F40000704740F0FE4040F4400070470D
:10135C004FF0FF0C1CEAD0521EBF1CEAD15392EA8C
:10136C000C0F93EA0C0F69D0A2EB030280EA010C7C
:10137C0049024FEA402037D04FF0805343EA111115
:10138C0043EA10130CF000408B4238BF5B0042F173
:10139C007D024FF4000C8B4224BF5B1A40EA0C0018
:1013AC00B3EB510F24BFA3EB510340EA5C00B3EB4A
:1013BC00910F24BFA3EB910340EA9C00B3EBD10F38
:1013CC0024BFA3EBD10340EADC001B0118BF5FEA8A
:1013DC001C1CE0D1FD2A3FF650AF8B4240EBC250B3
:1013EC0008BF20F0010070470CF0004C4CEA502074
:1013FC007F32C2BFD2F1FF0340EAC250704740F4C3
:10140C0000004FF00003013A37E792F0000F00F0B4
:10141C00004C02BF400010F4000F013AF9D040EA32
:10142C000C0093F0000F01F0004C02BF490011F4C6
:10143C00000F013BF9D041EA0C0195E70CEAD153BE
:10144C0092EA0C0F08D142027FF47DAF93EA0C0FA5
:10145C007FF470AF084676E793EA0C0F04D14B0289
:10146C003FF44CAF08466EE730F0004C18BF31F03B
:10147C00004CCAD130F000427FF45CAF31F0004335
:10148C007FF43CAF5FE700BF42000ED2B2F1FE4FDB
:10149C000BD34FF09E03B3EB126209D44FEA002337
:1014AC0043F0004323FA02F070474FF000007047FE
:1014BC0012F1610F01D1420202D14FF0FF3070479F
:1014CC004FF00000704700BF014B1868704700BF19
:1014DC00D000002030B5141E05469BB0184604DA27
:1014EC008B232B604FF0FF301DE04FF40273ADF8EF
:1014FC000C300CBF234604F1FF33029305934FF6D7
:10150C00FF7300910491ADF80E3002461E9B6946A4
:10151C00284600F073F8431CBCBF8B232B6014B11E
:10152C00009B00221A701BB030BD000007B5009361
:10153C0013460A46014603480068FFF7CBFF03B089
:10154C005DF804FBD00000202DE9F0478E68824640
:10155C009E420C46914698463ED88A8912F4906F6A
:10156C003AD02568096902236F1A656905EB4505B0
:10157C0095FBF3F57B1C43449D4238BF1D46530538
:10158C000FD5294600F04AFB064698B13A46216928
:10159C0000F0D2FAA38923F4906343F08003A38173
:1015AC0013E02A4600F098FB064670B921695046B4
:1015BC0000F0E8FA0C23CAF80030A3894FF0FF3092
:1015CC0043F04003A381BDE8F08726613E442660CA
:1015DC0046466561ED1BA560464528BF4646494613
:1015EC003246206800F0B3FAA36800209B1BA3606E
:1015FC0023681E442660BDE8F08700002DE9F04FFB
:10160C009DB003938B8980461C060D4616460DD55E
:10161C000B695BB9402100F001FB2860286118B907
:10162C000C23C8F80030CDE040236B6100230993F4
:10163C0020238DF82930DFF89CB130238DF82A3027
:10164C0037463C4614F8013B1BB9B7EB060910D0E2
:10165C0003E0252BF9D02746F3E74B4632462946C3
:10166C004046FFF771FF013000F0A780099B4B4407
:10167C0009933B78002B00F0A08000234FF0FF3241
:10168C0004930793059206938DF853301A93012611
:10169C00052221784E4800F041FA671C049B38B1B2
:1016AC004B4A3C46801A06FA00F018430490EFE7C8
:1016BC00D90644BF20228DF853201A0744BF2B2291
:1016CC008DF8532022782A2A03D0079A00210A2069
:1016DC000BE0039A111D12680391002A10DA524292
:1016EC0043F00200079204900BE027463B7801344C
:1016FC00303B092B03D800FB02320121F5E701B185
:10170C0007923B782E2B1ED17B782A2B0AD1039B78
:10171C0002371A1D1B680392002BB8BF4FF0FF3322
:10172C00059310E0002319460593781C0A240746FC
:10173C003A780130303A092A03D804FB01210123FD
:10174C00F5E703B1059103223978224800F0E6F958
:10175C0040B14023CBEB000003FA00F0049B0137AF
:10176C0018430490397806221B487E1C8DF82810EB
:10177C0000F0D4F988B1194B33B9039B073323F02C
:10178C0007030833039314E003AB00932A46144B6E
:10179C0004A94046AFF3008007E003AB00932A4650
:1017AC000F4B04A9404600F093F8B0F1FF3F82467E
:1017BC0003D0099B5344099342E7AB895B0601D4E0
:1017CC00099801E04FF0FF301DB0BDE8F08F00BF6D
:1017DC00D01E0008D61E0008DA1E0008000000000B
:1017EC00551500082DE9F04791461F460A698B688C
:1017FC0006469342B8BF1346C9F8003091F843200F
:10180C000C46DDF8208012B10133C9F80030236892
:10181C00990642BFD9F800300233C9F80030256868
:10182C0015F0060510D104F1190A07E00123524600
:10183C0039463046C04701301AD00135E368D9F833
:10184C0000209B1A9D42F1DB94F843302268003350
:10185C0018BF012392060FD5E118302081F8430000
:10186C005A1C94F845102244023382F8431003E0CA
:10187C004FF0FF30BDE8F08704F1430239463046A3
:10188C00C0470130F4D02268D9F80050E36802F068
:10189C000602042A08BF5D1B2269A3680CBF25EA57
:1018AC00E57500259342C4BF9B1AED184FF0000953
:1018BC001A344D4509D00123224639463046C047DB
:1018CC000130D5D009F10109F3E70020BDE8F0871C
:1018DC002DE9F04317460A7E85B06E2A98460646D7
:1018EC000C460C9B01F1430E00F0AE8011D8632A1C
:1018FC0022D009D8002A00F0BB80582A40F0CA80B8
:10190C0081F84520834955E0642A1ED0692A1CD0F1
:10191C00C0E0732A00F0B08009D86F2A2ED0702A4C
:10192C0040F0B8800A6842F020020A603EE0752A56
:10193C0024D0782A3AD0ADE01A6801F14205111D85
:10194C001960136884F84230A8E021681A6811F015
:10195C00800F02D0111D196008E011F0400F02F148
:10196C000401196002D0B2F9003000E01368002BBA
:10197C003CDA2D225B4284F8432037E021681A6858
:10198C0011F0800F02D0111D196007E011F0400F0B
:10199C0002F10401196001D0138800E01368227E63
:1019AC005C496F2A14BF0A2208221BE078225A498C
:1019BC0084F845202268186812F0800F00F10405A5
:1019CC001D6003D1550601D5038800E00368D007DC
:1019DC0044BF42F0200222601BB9226822F0200290
:1019EC0022601022002084F8430001E049490A22B9
:1019FC006568002DA56008DB206820F004002060DD
:101A0C002BB9002D7DD175460CE0002B79D0754695
:101A1C00B3FBF2F002FB1033CB5C05F8013D03463F
:101A2C000028F5D1082A0BD12368DA0708D52369D9
:101A3C0062689A42DEBF302305F8013C05F1FF35A0
:101A4C00C5EB0E0323612EE008681A6810F0800FB6
:101A5C00496903D0101D1860136808E010F0400F9E
:101A6C0002F104001860136801D0198000E01960BD
:101A7C0000232361754616E01A68111D196015685C
:101A8C0000216268284600F049F808B1401B6060EC
:101A9C00636804E004F1420584F8422001232361C9
:101AAC00002384F84330CDF800803B4603AA21463E
:101ABC003046FFF797FE013002D14FF0FF3026E0A1
:101ACC0023692A4639463046C0470130F5D0236891
:101ADC009B0710D5002504F1190907E001234A469C
:101AEC0039463046C0470130E7D00135E368039AE8
:101AFC009B1A9D42F2DBE068039B9842B8BF1846E4
:101B0C0005E00B7804F1420584F842308AE705B011
:101B1C00BDE8F083E11E0008F21E000810B5C9B242
:101B2C0002449042034605D01C7801308C42F8D117
:101B3C00184610BD002010BD10B5431E0A4491423A
:101B4C0004D011F8014B03F8014FF8E710BD88429F
:101B5C0010B501EB020301D8421E0BE09842FBD2F8
:101B6C008118D21AD34204D013F8014D01F8014D5B
:101B7C00F8E710BD994204D011F8014B02F8014F5F
:101B8C00F8E710BD38B50546002944D051F8043C9F
:101B9C000C1F002BB8BFE41800F0D4F81E4A1368D1
:101BAC00114613B96360146030E0A3420DD922686A
:101BBC00A018834201BF18685B681218226063602A
:101BCC000C6023E0A24203D813465A68002AF9D1CC
:101BDC0018681918A1420BD1216801445818824287
:101BEC00196013D110685268014419605A600DE0F5
:101BFC0002D90C232B6009E021686018824201BFD6
:101C0C00106852680918216062605C602846BDE863
:101C1C00384000F098B838BDB401002070B5CD1C28
:101C2C0025F0030508350C2D38BF0C25002D064674
:101C3C0001DBA94202D90C23336046E000F082F8A4
:101C4C00234B1C681A462146A1B10B685B1B0ED4B2
:101C5C000B2B03D90B60CC18CD501EE08C420BBF64
:101C6C0063684B681360636018BF0C4615E00C4644
:101C7C004968E9E7174C23681BB9304600F052F865
:101C8C0020602946304600F04DF8431C18D0C41C87
:101C9C0024F00304A0420DD12560304600F053F827
:101CAC0004F10B00231D20F00700C31A0ED05A427A
:101CBC00E25070BD211A304600F034F80130EBD1FF
:101CCC000C233360304600F03EF8002070BD00BF9E
:101CDC00B4010020B0010020F8B5074615460E46A9
:101CEC0021B91146BDE8F840FFF798BF1AB9FFF7C4
:101CFC0049FF2846F8BD00F027F885420ED9294641
:101D0C003846FFF78BFF044650B131462A46FFF7A1
:101D1C0013FF31463846FFF735FF01E03046F8BD7A
:101D2C002046F8BD38B5064C00230546084623600E
:101D3C00FEF720FB431C02D1236803B12B6038BD96
:101D4C00B80100207047704751F8040C0028BEBF42
:101D5C00091851F8043CC018043870475374616377
:101D6C006B206672616D653A0A00000020523020CB
:101D7C003D2020253038580A000000002052312028
:101D8C003D2020253038580A000000002052322017
:101D9C003D2020253038580A000000002052332006
:101DAC003D2020253038580A0000000020523132E6
:101DBC00203D20253038580A00000000204C5220CD
:101DCC003D2020253038580A0000000020504320C8
:101DDC003D2020253038580A000000002050535276
:101DEC00203D20253038580A000000004653522F61
:101DFC004641523A0A0000002043465352203D20EF
:101E0C0020253038580A00002048465352203D20E7
:101E1C0020253038580A00002044465352203D20DB
:101E2C0020253038580A00002041465352203D20CE
:101E3C0020253038580A0000204D4D464152203D97
:101E4C0020253038580A00002042464152203D20BF
:101E5C0020253038580A00004D6973630A000000D1
:101E6C00204C522F4558435F52455455524E3D20FD
:101E7C00253038580A0000005B4861726446617571
:101E8C006C745D0A000000005B4275734661756CF2
:101E9C00745D0A005B55736167654661756C745DB2
:101EAC000A00000000000000000000004C1D0000B3
:101EBC0000000000000000000010014000200000A5
:101ECC0001000000232D302B2000686C4C0065664F
:101EDC00674546470030313233343536373839416F
:101EEC004243444546003031323334353637383985
:071EFC00616263646566008A
:101F040078563412E00000200000000000000000B9
:101F140000000000010203040607080900A24A04A5
:101F24000008014000020000090000000008014010
:101F34000400000009000000000C0140000400003F
:101F4400090000000008014000040000080000002F
:101F5400000801400800000008000000000C0140D7
:101F64000008000009000000043000080101FFFF20
:101F7400000000000000000000000000000000005D
:101F8400000000000000000000000000000000004D
:101F9400000000000000000000000000000000003D
:101FA400000000000000000000000000000000002D
:101FB400000000000000000000000000000000001D
:101FC400000000000000000000000000000000000D
:081FD4007000002032547698E1
:040000050800010DE1
:00000001FF
